{
  "contractName": "CoinracerMarketplace",
  "abi": [
    {
      "inputs": [
        {
          "internalType": "contract ERC20",
          "name": "_coinracer",
          "type": "address"
        },
        {
          "internalType": "address",
          "name": "_nftFactory",
          "type": "address"
        }
      ],
      "stateMutability": "nonpayable",
      "type": "constructor"
    },
    {
      "anonymous": false,
      "inputs": [
        {
          "indexed": false,
          "internalType": "uint256",
          "name": "nftId",
          "type": "uint256"
        },
        {
          "indexed": false,
          "internalType": "address",
          "name": "claimedBy",
          "type": "address"
        }
      ],
      "name": "NFTClaimed",
      "type": "event"
    },
    {
      "anonymous": false,
      "inputs": [
        {
          "indexed": false,
          "internalType": "uint256",
          "name": "nftId",
          "type": "uint256"
        },
        {
          "indexed": false,
          "internalType": "address",
          "name": "claimedBy",
          "type": "address"
        }
      ],
      "name": "NFTRefunded",
      "type": "event"
    },
    {
      "anonymous": false,
      "inputs": [
        {
          "indexed": false,
          "internalType": "uint256",
          "name": "nftId",
          "type": "uint256"
        },
        {
          "indexed": false,
          "internalType": "address",
          "name": "createdBy",
          "type": "address"
        },
        {
          "indexed": false,
          "internalType": "address",
          "name": "currentBidOwner",
          "type": "address"
        },
        {
          "indexed": false,
          "internalType": "uint256",
          "name": "currentBidPrice",
          "type": "uint256"
        },
        {
          "indexed": false,
          "internalType": "uint256",
          "name": "endAuction",
          "type": "uint256"
        },
        {
          "indexed": false,
          "internalType": "uint256",
          "name": "bidCount",
          "type": "uint256"
        },
        {
          "indexed": false,
          "internalType": "bool",
          "name": "isOpen",
          "type": "bool"
        }
      ],
      "name": "NewAuction",
      "type": "event"
    },
    {
      "anonymous": false,
      "inputs": [
        {
          "indexed": false,
          "internalType": "uint256",
          "name": "nftId",
          "type": "uint256"
        },
        {
          "indexed": false,
          "internalType": "uint256",
          "name": "newBid",
          "type": "uint256"
        }
      ],
      "name": "NewBidOnAuction",
      "type": "event"
    },
    {
      "anonymous": false,
      "inputs": [
        {
          "indexed": true,
          "internalType": "address",
          "name": "previousOwner",
          "type": "address"
        },
        {
          "indexed": true,
          "internalType": "address",
          "name": "newOwner",
          "type": "address"
        }
      ],
      "name": "OwnershipTransferred",
      "type": "event"
    },
    {
      "anonymous": false,
      "inputs": [
        {
          "indexed": false,
          "internalType": "uint256",
          "name": "nftId",
          "type": "uint256"
        },
        {
          "indexed": false,
          "internalType": "address",
          "name": "claimedBy",
          "type": "address"
        }
      ],
      "name": "TokensClaimed",
      "type": "event"
    },
    {
      "inputs": [
        {
          "internalType": "uint256",
          "name": "",
          "type": "uint256"
        }
      ],
      "name": "auctionList",
      "outputs": [
        {
          "internalType": "address",
          "name": "creator",
          "type": "address"
        },
        {
          "internalType": "address",
          "name": "currentBidOwner",
          "type": "address"
        },
        {
          "internalType": "uint256",
          "name": "currentBidPrice",
          "type": "uint256"
        },
        {
          "internalType": "uint256",
          "name": "endAuction",
          "type": "uint256"
        },
        {
          "internalType": "uint256",
          "name": "bidCount",
          "type": "uint256"
        },
        {
          "internalType": "bool",
          "name": "isOpen",
          "type": "bool"
        }
      ],
      "stateMutability": "view",
      "type": "function"
    },
    {
      "inputs": [
        {
          "internalType": "uint256",
          "name": "",
          "type": "uint256"
        },
        {
          "internalType": "address",
          "name": "",
          "type": "address"
        }
      ],
      "name": "bidders",
      "outputs": [
        {
          "internalType": "uint256",
          "name": "",
          "type": "uint256"
        }
      ],
      "stateMutability": "view",
      "type": "function"
    },
    {
      "inputs": [],
      "name": "index",
      "outputs": [
        {
          "internalType": "uint256",
          "name": "",
          "type": "uint256"
        }
      ],
      "stateMutability": "view",
      "type": "function"
    },
    {
      "inputs": [],
      "name": "name",
      "outputs": [
        {
          "internalType": "string",
          "name": "",
          "type": "string"
        }
      ],
      "stateMutability": "view",
      "type": "function"
    },
    {
      "inputs": [],
      "name": "owner",
      "outputs": [
        {
          "internalType": "address",
          "name": "",
          "type": "address"
        }
      ],
      "stateMutability": "view",
      "type": "function"
    },
    {
      "inputs": [],
      "name": "renounceOwnership",
      "outputs": [],
      "stateMutability": "nonpayable",
      "type": "function"
    },
    {
      "inputs": [
        {
          "internalType": "address",
          "name": "newOwner",
          "type": "address"
        }
      ],
      "name": "transferOwnership",
      "outputs": [],
      "stateMutability": "nonpayable",
      "type": "function"
    },
    {
      "inputs": [
        {
          "internalType": "uint256",
          "name": "_nftId",
          "type": "uint256"
        },
        {
          "internalType": "uint256",
          "name": "_initialBid",
          "type": "uint256"
        },
        {
          "internalType": "uint256",
          "name": "_endAuction",
          "type": "uint256"
        }
      ],
      "name": "createAuction",
      "outputs": [
        {
          "internalType": "uint256",
          "name": "",
          "type": "uint256"
        }
      ],
      "stateMutability": "nonpayable",
      "type": "function"
    },
    {
      "inputs": [
        {
          "internalType": "uint256",
          "name": "_nftId",
          "type": "uint256"
        }
      ],
      "name": "isTimePassed",
      "outputs": [
        {
          "internalType": "bool",
          "name": "",
          "type": "bool"
        }
      ],
      "stateMutability": "view",
      "type": "function"
    },
    {
      "inputs": [
        {
          "internalType": "uint256",
          "name": "_nftId",
          "type": "uint256"
        },
        {
          "internalType": "uint256",
          "name": "_newBid",
          "type": "uint256"
        }
      ],
      "name": "bid",
      "outputs": [
        {
          "internalType": "bool",
          "name": "",
          "type": "bool"
        }
      ],
      "stateMutability": "nonpayable",
      "type": "function"
    },
    {
      "inputs": [
        {
          "internalType": "uint256",
          "name": "_nftId",
          "type": "uint256"
        }
      ],
      "name": "claimNFT",
      "outputs": [],
      "stateMutability": "nonpayable",
      "type": "function"
    },
    {
      "inputs": [
        {
          "internalType": "uint256",
          "name": "_nftId",
          "type": "uint256"
        }
      ],
      "name": "claimToken",
      "outputs": [],
      "stateMutability": "nonpayable",
      "type": "function"
    },
    {
      "inputs": [
        {
          "internalType": "uint256",
          "name": "_nftId",
          "type": "uint256"
        }
      ],
      "name": "refund",
      "outputs": [],
      "stateMutability": "nonpayable",
      "type": "function"
    },
    {
      "inputs": [],
      "name": "withdrawFee",
      "outputs": [],
      "stateMutability": "nonpayable",
      "type": "function"
    },
    {
      "inputs": [
        {
          "internalType": "address",
          "name": "",
          "type": "address"
        },
        {
          "internalType": "address",
          "name": "",
          "type": "address"
        },
        {
          "internalType": "uint256",
          "name": "",
          "type": "uint256"
        },
        {
          "internalType": "bytes",
          "name": "",
          "type": "bytes"
        }
      ],
      "name": "onERC721Received",
      "outputs": [
        {
          "internalType": "bytes4",
          "name": "",
          "type": "bytes4"
        }
      ],
      "stateMutability": "nonpayable",
      "type": "function"
    }
  ],
  "bytecode": "0x60806040526000600255600060035534801561001a57600080fd5b506040516200281b3803806200281b8339818101604052604081101561003f57600080fd5b810190808051906020019092919080519060200190929190505050600061006a61019160201b60201c565b9050806000806101000a81548173ffffffffffffffffffffffffffffffffffffffff021916908373ffffffffffffffffffffffffffffffffffffffff1602179055508073ffffffffffffffffffffffffffffffffffffffff16600073ffffffffffffffffffffffffffffffffffffffff167f8be0079c531659141344cd1fd0a4f28419497f9722a3daafe3b4186f6b6457e060405160405180910390a35081600460006101000a81548173ffffffffffffffffffffffffffffffffffffffff021916908373ffffffffffffffffffffffffffffffffffffffff16021790555080600560006101000a81548173ffffffffffffffffffffffffffffffffffffffff021916908373ffffffffffffffffffffffffffffffffffffffff1602179055505050610199565b600033905090565b61267280620001a96000396000f3fe608060405234801561001057600080fd5b50600436106100f55760003560e01c8063715018a611610097578063cda4beef11610066578063cda4beef146104f4578063e941fa781461054a578063f2fde38b14610554578063fe5c873a14610598576100f5565b8063715018a61461044457806384f241f41461044e5780638da5cb5b14610492578063a9e7c2e5146104c6576100f5565b8063278ecde1116100d3578063278ecde1146103175780632986c0e514610345578063598647f814610363578063669c0083146103b1576100f5565b8063020b0517146100fa57806306fdde031461015c578063150b7a02146101df575b600080fd5b6101466004803603604081101561011057600080fd5b8101908080359060200190929190803573ffffffffffffffffffffffffffffffffffffffff1690602001909291905050506105c6565b6040518082815260200191505060405180910390f35b6101646105eb565b6040518080602001828103825283818151815260200191508051906020019080838360005b838110156101a4578082015181840152602081019050610189565b50505050905090810190601f1680156101d15780820380516001836020036101000a031916815260200191505b509250505060405180910390f35b6102e2600480360360808110156101f557600080fd5b81019080803573ffffffffffffffffffffffffffffffffffffffff169060200190929190803573ffffffffffffffffffffffffffffffffffffffff169060200190929190803590602001909291908035906020019064010000000081111561025c57600080fd5b82018360208201111561026e57600080fd5b8035906020019184600183028401116401000000008311171561029057600080fd5b91908080601f016020809104026020016040519081016040528093929190818152602001838380828437600081840152601f19601f820116905080830192505050505050509192919290505050610689565b60405180827bffffffffffffffffffffffffffffffffffffffffffffffffffffffff1916815260200191505060405180910390f35b6103436004803603602081101561032d57600080fd5b810190808035906020019092919050505061069d565b005b61034d6109a9565b6040518082815260200191505060405180910390f35b6103996004803603604081101561037957600080fd5b8101908080359060200190929190803590602001909291905050506109af565b60405180821515815260200191505060405180910390f35b6103dd600480360360208110156103c757600080fd5b8101908080359060200190929190505050610edd565b604051808773ffffffffffffffffffffffffffffffffffffffff1681526020018673ffffffffffffffffffffffffffffffffffffffff1681526020018581526020018481526020018381526020018215158152602001965050505050505060405180910390f35b61044c610f66565b005b61047a6004803603602081101561046457600080fd5b81019080803590602001909291905050506110d3565b60405180821515815260200191505060405180910390f35b61049a61110b565b604051808273ffffffffffffffffffffffffffffffffffffffff16815260200191505060405180910390f35b6104f2600480360360208110156104dc57600080fd5b8101908080359060200190929190505050611134565b005b6105346004803603606081101561050a57600080fd5b81019080803590602001909291908035906020019092919080359060200190929190505050611536565b6040518082815260200191505060405180910390f35b610552611b1f565b005b6105966004803603602081101561056a57600080fd5b81019080803573ffffffffffffffffffffffffffffffffffffffff169060200190929190505050611d3f565b005b6105c4600480360360208110156105ae57600080fd5b8101908080359060200190929190505050611f31565b005b6007602052816000526040600020602052806000526040600020600091509150505481565b60018054600181600116156101000203166002900480601f0160208091040260200160405190810160405280929190818152602001828054600181600116156101000203166002900480156106815780601f1061065657610100808354040283529160200191610681565b820191906000526020600020905b81548152906001019060200180831161066457829003601f168201915b505050505081565b600063150b7a0260e01b9050949350505050565b6006600082815260200190815260200160002060050160009054906101000a900460ff16610733576040517f08c379a000000000000000000000000000000000000000000000000000000000815260040180806020018281038252600f8152602001807f496e76616c69642061756374696f6e000000000000000000000000000000000081525060200191505060405180910390fd5b61073c816110d3565b6107ae576040517f08c379a00000000000000000000000000000000000000000000000000000000081526004018080602001828103825260158152602001807f41756374696f6e206973207374696c6c206f70656e000000000000000000000081525060200191505060405180910390fd5b60006006600083815260200190815260200160002090503373ffffffffffffffffffffffffffffffffffffffff168160000160009054906101000a900473ffffffffffffffffffffffffffffffffffffffff1673ffffffffffffffffffffffffffffffffffffffff161461086d576040517f08c379a00000000000000000000000000000000000000000000000000000000081526004018080602001828103825260388152602001806125d46038913960400191505060405180910390fd5b600073ffffffffffffffffffffffffffffffffffffffff168160010160009054906101000a900473ffffffffffffffffffffffffffffffffffffffff1673ffffffffffffffffffffffffffffffffffffffff1614610933576040517f08c379a000000000000000000000000000000000000000000000000000000000815260040180806020018281038252601f8152602001807f4578697374696e6720626964657220666f7220746869732061756374696f6e0081525060200191505060405180910390fd5b60008160050160006101000a81548160ff0219169083151502179055507fd41a727f28bab471a9a35649a5614c5ed06f24f1a71c479b3ce6e23effe29eaf8233604051808381526020018273ffffffffffffffffffffffffffffffffffffffff1681526020019250505060405180910390a15050565b60025481565b6000600115156006600085815260200190815260200160002060050160009054906101000a900460ff16151514610a4e576040517f08c379a000000000000000000000000000000000000000000000000000000000815260040180806020018281038252600f8152602001807f496e76616c69642061756374696f6e000000000000000000000000000000000081525060200191505060405180910390fd5b6000600660008581526020019081526020016000209050610a6e846110d3565b15610ae1576040517f08c379a00000000000000000000000000000000000000000000000000000000081526004018080602001828103825260138152602001807f41756374696f6e206973206e6f74206f70656e0000000000000000000000000081525060200191505060405180910390fd5b80600201548311610b3d576040517f08c379a000000000000000000000000000000000000000000000000000000000815260040180806020018281038252603181526020018061260c6031913960400191505060405180910390fd5b8060000160009054906101000a900473ffffffffffffffffffffffffffffffffffffffff1673ffffffffffffffffffffffffffffffffffffffff163373ffffffffffffffffffffffffffffffffffffffff161415610be6576040517f08c379a000000000000000000000000000000000000000000000000000000000815260040180806020018281038252602b8152602001806124e9602b913960400191505060405180910390fd5b600460009054906101000a900473ffffffffffffffffffffffffffffffffffffffff1673ffffffffffffffffffffffffffffffffffffffff166323b872dd3330866040518463ffffffff1660e01b8152600401808473ffffffffffffffffffffffffffffffffffffffff1681526020018373ffffffffffffffffffffffffffffffffffffffff1681526020018281526020019350505050602060405180830381600087803b158015610c9757600080fd5b505af1158015610cab573d6000803e3d6000fd5b505050506040513d6020811015610cc157600080fd5b810190808051906020019092919050505050600081600401541115610dd857600460009054906101000a900473ffffffffffffffffffffffffffffffffffffffff1673ffffffffffffffffffffffffffffffffffffffff1663a9059cbb8260010160009054906101000a900473ffffffffffffffffffffffffffffffffffffffff1683600201546040518363ffffffff1660e01b8152600401808373ffffffffffffffffffffffffffffffffffffffff16815260200182815260200192505050602060405180830381600087803b158015610d9b57600080fd5b505af1158015610daf573d6000803e3d6000fd5b505050506040513d6020811015610dc557600080fd5b8101908080519060200190929190505050505b826007600086815260200190815260200160002060003373ffffffffffffffffffffffffffffffffffffffff1673ffffffffffffffffffffffffffffffffffffffff168152602001908152602001600020819055506000339050808260010160006101000a81548173ffffffffffffffffffffffffffffffffffffffff021916908373ffffffffffffffffffffffffffffffffffffffff16021790555083826002018190555081600401600081548092919060010191905055507f0819577efdbcc6f20344847ff1b0cf5099165317fa8c0cec472cf1b2c83515c68585604051808381526020018281526020019250505060405180910390a160019250505092915050565b60066020528060005260406000206000915090508060000160009054906101000a900473ffffffffffffffffffffffffffffffffffffffff16908060010160009054906101000a900473ffffffffffffffffffffffffffffffffffffffff16908060020154908060030154908060040154908060050160009054906101000a900460ff16905086565b610f6e6124e0565b73ffffffffffffffffffffffffffffffffffffffff16610f8c61110b565b73ffffffffffffffffffffffffffffffffffffffff1614611015576040517f08c379a00000000000000000000000000000000000000000000000000000000081526004018080602001828103825260208152602001807f4f776e61626c653a2063616c6c6572206973206e6f7420746865206f776e657281525060200191505060405180910390fd5b600073ffffffffffffffffffffffffffffffffffffffff1660008054906101000a900473ffffffffffffffffffffffffffffffffffffffff1673ffffffffffffffffffffffffffffffffffffffff167f8be0079c531659141344cd1fd0a4f28419497f9722a3daafe3b4186f6b6457e060405160405180910390a360008060006101000a81548173ffffffffffffffffffffffffffffffffffffffff021916908373ffffffffffffffffffffffffffffffffffffffff160217905550565b60008060066000848152602001908152602001600020905080600301544210611100576001915050611106565b60009150505b919050565b60008060009054906101000a900473ffffffffffffffffffffffffffffffffffffffff16905090565b6006600082815260200190815260200160002060050160009054906101000a900460ff166111ca576040517f08c379a000000000000000000000000000000000000000000000000000000000815260040180806020018281038252600f8152602001807f496e76616c69642061756374696f6e000000000000000000000000000000000081525060200191505060405180910390fd5b60006006600083815260200190815260200160002090503373ffffffffffffffffffffffffffffffffffffffff168160000160009054906101000a900473ffffffffffffffffffffffffffffffffffffffff1673ffffffffffffffffffffffffffffffffffffffff1614611289576040517f08c379a00000000000000000000000000000000000000000000000000000000081526004018080602001828103825260388152602001806125d46038913960400191505060405180910390fd5b600560009054906101000a900473ffffffffffffffffffffffffffffffffffffffff1673ffffffffffffffffffffffffffffffffffffffff166342842e0e8260000160009054906101000a900473ffffffffffffffffffffffffffffffffffffffff168360010160009054906101000a900473ffffffffffffffffffffffffffffffffffffffff16856040518463ffffffff1660e01b8152600401808473ffffffffffffffffffffffffffffffffffffffff1681526020018373ffffffffffffffffffffffffffffffffffffffff1681526020018281526020019350505050600060405180830381600087803b15801561138257600080fd5b505af1158015611396573d6000803e3d6000fd5b505050506064600a826002015402816113ab57fe5b046003540160038190555060006064605a836002015402816113c957fe5b049050600460009054906101000a900473ffffffffffffffffffffffffffffffffffffffff1673ffffffffffffffffffffffffffffffffffffffff1663a9059cbb8360000160009054906101000a900473ffffffffffffffffffffffffffffffffffffffff16836040518363ffffffff1660e01b8152600401808373ffffffffffffffffffffffffffffffffffffffff16815260200182815260200192505050602060405180830381600087803b15801561148357600080fd5b505af1158015611497573d6000803e3d6000fd5b505050506040513d60208110156114ad57600080fd5b81019080805190602001909291905050505060008260050160006101000a81548160ff0219169083151502179055507f83017964d41e2eb3369a74f93ce7024dc09d85d2bfa35ca86268234733b965908333604051808381526020018273ffffffffffffffffffffffffffffffffffffffff1681526020019250505060405180910390a1505050565b60004282116115ad576040517f08c379a000000000000000000000000000000000000000000000000000000000815260040180806020018281038252601c8152602001807f496e76616c696420656e64206461746520666f722061756374696f6e0000000081525060200191505060405180910390fd5b60008311611623576040517f08c379a00000000000000000000000000000000000000000000000000000000081526004018080602001828103825260198152602001807f496e76616c696420696e697469616c206269642070726963650000000000000081525060200191505060405180910390fd5b3373ffffffffffffffffffffffffffffffffffffffff16600560009054906101000a900473ffffffffffffffffffffffffffffffffffffffff1673ffffffffffffffffffffffffffffffffffffffff16636352211e866040518263ffffffff1660e01b81526004018082815260200191505060206040518083038186803b1580156116ad57600080fd5b505afa1580156116c1573d6000803e3d6000fd5b505050506040513d60208110156116d757600080fd5b810190808051906020019092919050505073ffffffffffffffffffffffffffffffffffffffff1614611754576040517f08c379a000000000000000000000000000000000000000000000000000000000815260040180806020018281038252602281526020018061258b6022913960400191505060405180910390fd5b600115156006600086815260200190815260200160002060050160009054906101000a900460ff16151514156117f2576040517f08c379a00000000000000000000000000000000000000000000000000000000081526004018080602001828103825260148152602001807f43757272656e746c79206f6e2041756374696f6e00000000000000000000000081525060200191505060405180910390fd5b3073ffffffffffffffffffffffffffffffffffffffff16600560009054906101000a900473ffffffffffffffffffffffffffffffffffffffff1673ffffffffffffffffffffffffffffffffffffffff1663081812fc866040518263ffffffff1660e01b81526004018082815260200191505060206040518083038186803b15801561187c57600080fd5b505afa158015611890573d6000803e3d6000fd5b505050506040513d60208110156118a657600080fd5b810190808051906020019092919050505073ffffffffffffffffffffffffffffffffffffffff1614611923576040517f08c379a00000000000000000000000000000000000000000000000000000000081526004018080602001828103825260278152602001806125ad6027913960400191505060405180910390fd5b6000806040518060c001604052803373ffffffffffffffffffffffffffffffffffffffff1681526020018373ffffffffffffffffffffffffffffffffffffffff16815260200186815260200185815260200160008152602001600115158152509050806006600088815260200190815260200160002060008201518160000160006101000a81548173ffffffffffffffffffffffffffffffffffffffff021916908373ffffffffffffffffffffffffffffffffffffffff16021790555060208201518160010160006101000a81548173ffffffffffffffffffffffffffffffffffffffff021916908373ffffffffffffffffffffffffffffffffffffffff16021790555060408201518160020155606082015181600301556080820151816004015560a08201518160050160006101000a81548160ff0219169083151502179055509050506002600081548092919060010191905055507febcedfe5c5275bedf5d2910e499ecaf43bfcd12863af8a4a3b221a5aee9c7688863384888860006001604051808881526020018773ffffffffffffffffffffffffffffffffffffffff1681526020018673ffffffffffffffffffffffffffffffffffffffff168152602001858152602001848152602001838152602001821515815260200197505050505050505060405180910390a1600254925050509392505050565b611b276124e0565b73ffffffffffffffffffffffffffffffffffffffff16611b4561110b565b73ffffffffffffffffffffffffffffffffffffffff1614611bce576040517f08c379a00000000000000000000000000000000000000000000000000000000081526004018080602001828103825260208152602001807f4f776e61626c653a2063616c6c6572206973206e6f7420746865206f776e657281525060200191505060405180910390fd5b600060035411611c46576040517f08c379a000000000000000000000000000000000000000000000000000000000815260040180806020018281038252600e8152602001807f4e6f2046656520416d6f756e747300000000000000000000000000000000000081525060200191505060405180910390fd5b600460009054906101000a900473ffffffffffffffffffffffffffffffffffffffff1673ffffffffffffffffffffffffffffffffffffffff166323b872dd30336003546040518463ffffffff1660e01b8152600401808473ffffffffffffffffffffffffffffffffffffffff1681526020018373ffffffffffffffffffffffffffffffffffffffff1681526020018281526020019350505050602060405180830381600087803b158015611cf957600080fd5b505af1158015611d0d573d6000803e3d6000fd5b505050506040513d6020811015611d2357600080fd5b8101908080519060200190929190505050506000600381905550565b611d476124e0565b73ffffffffffffffffffffffffffffffffffffffff16611d6561110b565b73ffffffffffffffffffffffffffffffffffffffff1614611dee576040517f08c379a00000000000000000000000000000000000000000000000000000000081526004018080602001828103825260208152602001807f4f776e61626c653a2063616c6c6572206973206e6f7420746865206f776e657281525060200191505060405180910390fd5b600073ffffffffffffffffffffffffffffffffffffffff168173ffffffffffffffffffffffffffffffffffffffff161415611e74576040517f08c379a00000000000000000000000000000000000000000000000000000000081526004018080602001828103825260268152602001806125146026913960400191505060405180910390fd5b8073ffffffffffffffffffffffffffffffffffffffff1660008054906101000a900473ffffffffffffffffffffffffffffffffffffffff1673ffffffffffffffffffffffffffffffffffffffff167f8be0079c531659141344cd1fd0a4f28419497f9722a3daafe3b4186f6b6457e060405160405180910390a3806000806101000a81548173ffffffffffffffffffffffffffffffffffffffff021916908373ffffffffffffffffffffffffffffffffffffffff16021790555050565b6006600082815260200190815260200160002060050160009054906101000a900460ff16611fc7576040517f08c379a000000000000000000000000000000000000000000000000000000000815260040180806020018281038252600f8152602001807f496e76616c69642061756374696f6e000000000000000000000000000000000081525060200191505060405180910390fd5b3373ffffffffffffffffffffffffffffffffffffffff16600560009054906101000a900473ffffffffffffffffffffffffffffffffffffffff1673ffffffffffffffffffffffffffffffffffffffff16636352211e836040518263ffffffff1660e01b81526004018082815260200191505060206040518083038186803b15801561205157600080fd5b505afa158015612065573d6000803e3d6000fd5b505050506040513d602081101561207b57600080fd5b810190808051906020019092919050505073ffffffffffffffffffffffffffffffffffffffff1614156120f9576040517f08c379a000000000000000000000000000000000000000000000000000000000815260040180806020018281038252602181526020018061253a6021913960400191505060405180910390fd5b612102816110d3565b612174576040517f08c379a00000000000000000000000000000000000000000000000000000000081526004018080602001828103825260158152602001807f41756374696f6e206973207374696c6c206f70656e000000000000000000000081525060200191505060405180910390fd5b60006006600083815260200190815260200160002090503373ffffffffffffffffffffffffffffffffffffffff168160010160009054906101000a900473ffffffffffffffffffffffffffffffffffffffff1673ffffffffffffffffffffffffffffffffffffffff1614612233576040517f08c379a000000000000000000000000000000000000000000000000000000000815260040180806020018281038252603081526020018061255b6030913960400191505060405180910390fd5b600560009054906101000a900473ffffffffffffffffffffffffffffffffffffffff1673ffffffffffffffffffffffffffffffffffffffff166342842e0e8260000160009054906101000a900473ffffffffffffffffffffffffffffffffffffffff168360010160009054906101000a900473ffffffffffffffffffffffffffffffffffffffff16856040518463ffffffff1660e01b8152600401808473ffffffffffffffffffffffffffffffffffffffff1681526020018373ffffffffffffffffffffffffffffffffffffffff1681526020018281526020019350505050600060405180830381600087803b15801561232c57600080fd5b505af1158015612340573d6000803e3d6000fd5b505050506064600a8260020154028161235557fe5b046003540160038190555060006064605a8360020154028161237357fe5b049050600460009054906101000a900473ffffffffffffffffffffffffffffffffffffffff1673ffffffffffffffffffffffffffffffffffffffff1663a9059cbb8360000160009054906101000a900473ffffffffffffffffffffffffffffffffffffffff16836040518363ffffffff1660e01b8152600401808373ffffffffffffffffffffffffffffffffffffffff16815260200182815260200192505050602060405180830381600087803b15801561242d57600080fd5b505af1158015612441573d6000803e3d6000fd5b505050506040513d602081101561245757600080fd5b81019080805190602001909291905050505060008260050160006101000a81548160ff0219169083151502179055507fec5f0dee1fc3c7beab746dbd5883eee3f1c9bc07fe02dd318c553c5243f52fea8333604051808381526020018273ffffffffffffffffffffffffffffffffffffffff1681526020019250505060405180910390a1505050565b60003390509056fe43726561746f72206f66207468652061756374696f6e2063616e6e6f7420706c616365206e6577206269644f776e61626c653a206e6577206f776e657220697320746865207a65726f2061646472657373596f752061726520616c7265616479206f776e6572206f662074686973204e46544e46542063616e20626520636c61696d6564206f6e6c79206279207468652063757272656e7420626964206f776e657243616c6c6572206973206e6f7420746865206f776e6572206f6620746865204e465452657175697265204e4654206f776e657273686970207472616e7366657220617070726f76616c546f6b656e732063616e20626520636c61696d6564206f6e6c79206279207468652063726561746f72206f66207468652061756374696f6e4e657720626964207072696365206d75737420626520686967686572207468616e207468652063757272656e7420626964a26469706673582212200edfa4bcc777d74f64e3d6e98819cfb462c29fa705ffa8b8ff696db4122ab80b64736f6c63430007060033",
  "immutableReferences": {},
  "source": "// SPDX-License-Identifier: MIT\npragma solidity ^0.7.5;\n\nimport \"@openzeppelin/contracts/token/ERC721/IERC721Receiver.sol\";\nimport \"@openzeppelin/contracts/token/ERC721/ERC721.sol\";\nimport \"@openzeppelin/contracts/token/ERC20/ERC20.sol\";\nimport \"@openzeppelin/contracts/access/Ownable.sol\";\nimport \"@openzeppelin/contracts/token/ERC721/IERC721Enumerable.sol\";\nimport \"@openzeppelin/contracts/token/ERC20/SafeERC20.sol\";\n// import \"hardhat/console.sol\"; //For debugging only\n\ncontract CoinracerMarketplace is IERC721Receiver, Ownable {\n    using SafeERC20 for IERC20;\n    // Name of the marketplace\n    string public name;\n\n    // Index of auctions\n    uint256 public index = 0;\n    uint256 private feeAmount = 0;\n    ERC20  coinracer;\n    IERC721Enumerable coinracer_nft_factory;// = \"0xD20086Ff85bc773f54d16Abce2e5bA0dD616B395\";\n\n    // Structure to define auction properties\n    struct Auction {\n        address creator; // Creator of the Auction\n        address currentBidOwner; // Address of the highest bider\n        uint256 currentBidPrice; // Current highest bid for the auction\n        uint256 endAuction; // Timestamp for the end day&time of the auction\n        uint256 bidCount; // Number of bid placed on the auction\n        bool isOpen;  // can be saled?\n    }\n\n    // Array will all auctions\n    // Auction[] private allAuctions;\n    mapping(uint256 => Auction) public auctionList; // nftID => Auction\n    mapping(uint256 => mapping(address => uint256)) public bidders; //nftId => bidderAddr => craceAmount\n\n    // Public event to notify that a new auction has been created\n    event NewAuction(\n        uint256 nftId,\n        address createdBy,\n        address currentBidOwner,\n        uint256 currentBidPrice,\n        uint256 endAuction,\n        uint256 bidCount,\n        bool isOpen\n    );\n\n    // Public event to notify that a new bid has been placed\n    event NewBidOnAuction(uint256 nftId, uint256 newBid);\n\n    // Public event to notif that winner of an\n    // auction claim for his reward\n    event NFTClaimed(uint256 nftId, address claimedBy);\n\n    // Public event to notify that the creator of\n    // an auction claimed for his money\n    event TokensClaimed(uint256 nftId, address claimedBy);\n\n    // Public event to notify that an NFT has been refunded to the\n    // creator of an auction\n    event NFTRefunded(uint256 nftId, address claimedBy);\n\n    // constructor of the contract\n    constructor(ERC20 _coinracer, address _nftFactory) {\n        coinracer = _coinracer;\n        coinracer_nft_factory = IERC721Enumerable(_nftFactory);\n    }\n\n    /**\n     * Check if a specific address is\n     * a contract address\n     * @param _addr: address to verify\n     */\n    function isContract(address _addr) private view returns (bool) {\n        uint256 size;\n        assembly {\n            size := extcodesize(_addr)\n        }\n        return size > 0;\n    }\n\n    /**\n     * Create a new auction of a specific NFT\n     * @param _nftId Id of the NFT for sale\n     * @param _initialBid Inital bid decided by the creator of the auction\n     * @param _endAuction Timestamp with the end date and time of the auction\n     */\n    function createAuction(\n        uint256 _nftId,\n        uint256 _initialBid,\n        uint256 _endAuction\n    ) external returns (uint256) {\n\n        // Check if the endAuction time is valid\n        require(_endAuction > block.timestamp, \"Invalid end date for auction\");\n\n        // Check if the initial bid price is > 0\n        require(_initialBid > 0, \"Invalid initial bid price\");\n\n        // Get NFT collection contract\n        // NFTCollection nftCollection = NFTCollection(_addressNFTCollection);\n\n        // Make sure the sender that wants to create a new auction\n        // for a specific NFT is the owner of this NFT\n        require(\n            coinracer_nft_factory.ownerOf(_nftId) == msg.sender,\n            \"Caller is not the owner of the NFT\"\n        );\n\n        require(auctionList[_nftId].isOpen != true, \"Currently on Auction\");\n\n        // // Make sure the owner of the NFT approved that the MarketPlace contract\n        // // is allowed to change ownership of the NFT\n        require(coinracer_nft_factory.getApproved(_nftId) == address(this), \"Require NFT ownership transfer approval\");\n\n        // Lock NFT in Marketplace contract\n        // coinracer_nft_factory.safeTransferFrom(msg.sender, address(this), _nftId);\n\n        //Casting from address to address payable\n        address currentBidOwner = address(0);\n        // Create new Auction object\n        Auction memory newAuction = Auction({\n            creator: msg.sender,\n            currentBidOwner: currentBidOwner,\n            currentBidPrice: _initialBid,\n            endAuction: _endAuction,\n            bidCount: 0,\n            isOpen: true\n        });\n\n        //update list\n        // allAuctions.push(newAuction);\n        auctionList[_nftId] = newAuction;\n\n        // increment auction sequence\n        index++;\n\n        // Trigger event and return index of new auction\n        emit NewAuction(\n            // index,\n            // _addressNFTCollection,\n            // _addressPaymentToken,\n            _nftId,\n            msg.sender,\n            currentBidOwner,\n            _initialBid,\n            _endAuction,\n            0,\n            true\n        );\n        return index;\n    }\n\n    /**\n     * Check if an auction is open\n     * @param _nftId Index of the auction\n     */\n    function isTimePassed(uint256 _nftId) public view returns (bool) {\n        Auction storage auction = auctionList[_nftId];\n        if (block.timestamp >= auction.endAuction) return true;\n        return false;\n    }\n\n    /**\n     * Place new bid on a specific auction\n     * @param _nftId Index of auction\n     * @param _newBid New bid price\n     */\n    function bid(uint256 _nftId, uint256 _newBid)\n        external\n        returns (bool)\n    {\n        require(auctionList[_nftId].isOpen == true, \"Invalid auction\");\n        Auction storage auction = auctionList[_nftId];\n\n        // check if auction is still open\n        require(!isTimePassed(_nftId), \"Auction is not open\");\n\n        // check if new bid price is higher than the current one\n        require(\n            _newBid > auction.currentBidPrice,\n            \"New bid price must be higher than the current bid\"\n        );\n\n        // check if new bider is not the owner\n        require(\n            msg.sender != auction.creator,\n            \"Creator of the auction cannot place new bid\"\n        );\n\n\n        // new bid is better than current bid!\n\n        // transfer token from new bider account to the marketplace account\n        // to lock the tokens\n            coinracer.transferFrom(msg.sender, address(this), _newBid);\n        // new bid is valid so must refund the current bid owner (if there is one!)\n        if (auction.bidCount > 0) {\n            coinracer.transfer(auction.currentBidOwner, auction.currentBidPrice);\n        }\n        bidders[_nftId][msg.sender] = _newBid;\n        // update auction info\n        address newBidOwner = msg.sender;\n        auction.currentBidOwner = newBidOwner;\n        auction.currentBidPrice = _newBid;\n        auction.bidCount++;\n        \n        // Trigger public event\n        emit NewBidOnAuction(_nftId, _newBid);\n\n        return true;\n    }\n\n    /**\n     * Function used by the winner of an auction\n     * to withdraw his NFT.\n     * When the NFT is withdrawn, the creator of the\n     * auction will receive the payment tokens in his wallet\n     * @param _nftId Index of auction\n     */\n    function claimNFT(uint256 _nftId) external {\n        require(auctionList[_nftId].isOpen, \"Invalid auction\");\n        require (coinracer_nft_factory.ownerOf(_nftId)!=msg.sender, \"You are already owner of this NFT\");\n        // Check if the auction is closed\n        require(isTimePassed(_nftId), \"Auction is still open\");\n\n        // Get auction\n        Auction storage auction = auctionList[_nftId];\n\n        // Check if the caller is the winner of the auction\n        require(\n            auction.currentBidOwner == msg.sender,\n            \"NFT can be claimed only by the current bid owner\"\n        );\n\n        // Get NFT collection contract\n        // NFTCollection nftCollection = NFTCollection(\n        //     auction.addressNFTCollection\n        // );\n        // Transfer NFT from marketplace contract\n        // to the winner address\n        coinracer_nft_factory.safeTransferFrom(auction.creator, auction.currentBidOwner, _nftId);\n\n        // Transfer locked token from the marketplace\n        // contract to the auction creator address\n        feeAmount = feeAmount + auction.currentBidPrice * 10 / 100;\n        uint256 amount = auction.currentBidPrice * 90 / 100;\n        coinracer.transfer(auction.creator, amount);\n        auction.isOpen = false;\n        emit NFTClaimed(_nftId, msg.sender);\n    }\n\n    /**\n     * Function used by the creator of an auction\n     * to withdraw his tokens when the auction is closed\n     * When the Token are withdrawn, the winned of the\n     * auction will receive the NFT in his walled\n     * @param _nftId Index of the auction\n     */\n    function claimToken(uint256 _nftId) external {\n        require(auctionList[_nftId].isOpen, \"Invalid auction\"); // XXX Optimize\n\n        // Get auction\n        Auction storage auction = auctionList[_nftId];\n\n        // Check if the caller is the creator of the auction\n        require(\n            auction.creator == msg.sender,\n            \"Tokens can be claimed only by the creator of the auction\"\n        );\n\n        // Get NFT Collection contract\n        // Transfer NFT from marketplace contract\n        // to the winned of the auction\n        coinracer_nft_factory.safeTransferFrom(auction.creator, auction.currentBidOwner, _nftId);\n\n        \n        // Transfer locked tokens from the market place contract\n        // to the wallet of the creator of the auction\n        feeAmount = feeAmount + auction.currentBidPrice * 10 / 100;\n        uint256 amount = auction.currentBidPrice * 90 / 100;\n        coinracer.transfer(auction.creator, amount);\n        auction.isOpen = false;\n        emit TokensClaimed(_nftId, msg.sender);\n    }\n\n        /**\n        * Function used by the creator of an auction\n        * to get his NFT back in case the auction is closed\n        * but there is no bider to make the NFT won't stay locked\n        * in the contract\n        * @param _nftId Index of the auction\n     */\n    function refund(uint256 _nftId) external {\n        require(auctionList[_nftId].isOpen, \"Invalid auction\");\n\n        // Check if the auction is closed\n        require(isTimePassed(_nftId), \"Auction is still open\");\n\n        // Get auction\n        Auction storage auction = auctionList[_nftId];\n\n        // Check if the caller is the creator of the auction\n        require(\n            auction.creator == msg.sender,\n            \"Tokens can be claimed only by the creator of the auction\"\n        );\n\n        require(\n            auction.currentBidOwner == address(0),\n            \"Existing bider for this auction\"\n        );\n        // Transfer NFT back from marketplace contract\n        // to the creator of the auction\n        // coinracer_nft_factory.transferFrom(\n        //     address(this),\n        //     auction.creator,\n        //     _nftId\n        // );\n        auction.isOpen = false;\n        emit NFTRefunded(_nftId, msg.sender);\n    }\n\n    //withdraw bid tokens if there is a top bidder that bidder more than msg.sender\n    function withdrawFee() external onlyOwner {\n        require(feeAmount > 0, \"No Fee Amounts\");\n        coinracer.transferFrom(address(this), msg.sender, feeAmount);\n        feeAmount = 0;\n    }\n    function onERC721Received(\n        address,\n        address,\n        uint256,\n        bytes memory\n    ) public virtual override returns (bytes4) {\n        return this.onERC721Received.selector;\n    }\n}",
  "sourcePath": "E:\\Project\\Contracts\\marketplace-contract\\contracts\\CoinracerMarketPlace.sol",
  "compiler": {
    "name": "solc",
    "version": "0.7.6+commit.7338295f.Emscripten.clang"
  },
  "schemaVersion": "3.4.3",
  "updatedAt": "2022-02-05T02:38:42.342Z",
  "devdoc": {
    "kind": "dev",
    "methods": {
      "bid(uint256,uint256)": {
        "params": {
          "_newBid": "New bid price",
          "_nftId": "Index of auction"
        }
      },
      "claimNFT(uint256)": {
        "params": {
          "_nftId": "Index of auction"
        }
      },
      "claimToken(uint256)": {
        "params": {
          "_nftId": "Index of the auction"
        }
      },
      "createAuction(uint256,uint256,uint256)": {
        "params": {
          "_endAuction": "Timestamp with the end date and time of the auction",
          "_initialBid": "Inital bid decided by the creator of the auction",
          "_nftId": "Id of the NFT for sale"
        }
      },
      "isTimePassed(uint256)": {
        "params": {
          "_nftId": "Index of the auction"
        }
      },
      "owner()": {
        "details": "Returns the address of the current owner."
      },
      "refund(uint256)": {
        "params": {
          "_nftId": "Index of the auction"
        }
      },
      "renounceOwnership()": {
        "details": "Leaves the contract without owner. It will not be possible to call `onlyOwner` functions anymore. Can only be called by the current owner. NOTE: Renouncing ownership will leave the contract without an owner, thereby removing any functionality that is only available to the owner."
      },
      "transferOwnership(address)": {
        "details": "Transfers ownership of the contract to a new account (`newOwner`). Can only be called by the current owner."
      }
    },
    "version": 1
  },
  "userdoc": {
    "kind": "user",
    "methods": {
      "bid(uint256,uint256)": {
        "notice": "Place new bid on a specific auction"
      },
      "claimNFT(uint256)": {
        "notice": "Function used by the winner of an auction to withdraw his NFT. When the NFT is withdrawn, the creator of the auction will receive the payment tokens in his wallet"
      },
      "claimToken(uint256)": {
        "notice": "Function used by the creator of an auction to withdraw his tokens when the auction is closed When the Token are withdrawn, the winned of the auction will receive the NFT in his walled"
      },
      "createAuction(uint256,uint256,uint256)": {
        "notice": "Create a new auction of a specific NFT"
      },
      "isTimePassed(uint256)": {
        "notice": "Check if an auction is open"
      },
      "refund(uint256)": {
        "notice": "Function used by the creator of an auction to get his NFT back in case the auction is closed but there is no bider to make the NFT won't stay locked in the contract"
      }
    },
    "version": 1
  }
}